:020000040800F2
:1000000098070020AD01000861130008591300088B
:100010005D1300084D0D0008BF210008000000001E
:10002000000000000000000000000000111800089F
:100030001911000800000000A9140008A91A0008FE
:10004000C7010008C7010008C7010008C701000870
:10005000C7010008C7010008C7010008C701000860
:10006000C7010008C7010008C7010008C701000850
:10007000C7010008C7010008C7010008C701000840
:10008000C7010008C7010008C7010008C701000830
:10009000C7010008C7010008C7010008C701000820
:1000A000C7010008C7010008C7010008C701000810
:1000B000C70100080D1B000800000000C701000870
:1000C000C70100080000000000000000C701000890
:1000D00000000000591F0008C701000800000000D0
:1000E00061110008C7010008C701000800F002F80C
:1000F00000F04CF80AA090E8000C82448344AAF176
:100100000107DA4501D100F041F8AFF2090EBAE873
:100110000F0013F0010F18BFFB1A43F0010318473B
:100120000C2500002C250000103A24BF78C878C1A7
:10013000FAD8520724BF30C830C144BF04680C60ED
:10014000704700000023002400250026103A28BF35
:1001500078C1FBD8520728BF30C148BF0B60704739
:10016000642900F0D580002070471FB59DE803008A
:1001700000F0B4FB00F034FD04000020002102F088
:100180002FFA401C60601FBD10B510BD00F05CFD73
:100190001146FFF7EAFF02F01BF800F07AFD03B406
:1001A000FFF7F2FF03BC00F0ABFD000009488047F9
:1001B00009480047FEE7FEE7FEE7FEE7FEE7FEE749
:1001C000FEE7FEE7FEE7FEE704480549054A064B61
:1001D00070470000AD1A0008ED00000898010020EB
:1001E00098070020980300209803002070B5064669
:1001F00000F054FB056806F10B0020F00704B44240
:100200009CBF002070BD2B466A68BAB11068A0423E
:1002100010D304F1080188423CBF5068586007D3EE
:100220005168101941601168091B01605860146021
:10023000101D70BD13465268002AE7D1214628469A
:1002400000F038FB0028DED170BD70B50446051FF4
:1002500000F024FB0068002C14BF446870BD002C23
:1002600018BFAC423CBF20466468F8D301680A1846
:10027000AA4218BF456003D12A68054611440160AF
:1002800028684119A1421CBF6C6070BD616869603B
:1002900021680844286070BD0FB41CB5074B06AA3E
:1002A0007B4469460090059800F0ADFB002069464C
:1002B00000F0BCFB1CBC5DF814FB000089070000CB
:1002C00070B5044685690068C10601D5302600E096
:1002D0002026C00707D070BDD4E9012130469047E1
:1002E000206A401C20626D1EF6D570BD70B50446B4
:1002F00085690078C00707D170BDD4E901212020AD
:100300009047206A401C20626D1EF6D570BD00002B
:100310002DE9F0410646002410687529314616A5DE
:1003200010D0AFF30080002802DA404213A507E0A6
:1003300031688A0701D512A502E0490704D511A545
:10034000012401E0AFF3008000210A2206F1240716
:1003500009E0B0FBF2FCB0FBF2F302FB1C00303012
:1003600078541846491C0028F3D123462A463046C3
:10037000BDE8F04100F0E8BA000000002D000000E8
:100380002B000000200000002DE9F05F89460446A4
:100390004FF0000ADFF824B1FB44C0F820A020464B
:1003A000E168884700287DD0252806D0D4E90121BE
:1003B0009047206A401C2062F1E700255F462046F6
:1003C000E16888472028064607DB312E05D2B81998
:1003D00010F8200C08B10543F1E7A80701D525F076
:1003E0000405C4F81CA00027C4F818A02A2E09D0C0
:1003F000304601F0E6FE38B304EB8708303EC8F81B
:10040000186019E059F8041B204604EB870291613B
:10041000E1688847012F064618D1E069002820DAF4
:1004200025F020051DE0D8F8180000EB800006EB51
:1004300040003038C8F818002046E1688847064672
:1004400001F0BFFE0028EED1012F0AD02E2E08D1D8
:100450002046E16888477F1C0646022F45F02005AC
:10046000C4DBA069002803DA404245F00105A06121
:10047000E80701D025F01005A6B1A6F14100192822
:1004800002D8203645F400654A46314620462560AC
:100490004D46FFF765FE60B1012807D0ED1D25F040
:1004A000070000E007E000F1080978E705F104091A
:1004B00075E730467AE7206ABDE8F09F70220000B9
:1004C0002DE9F04791460F4680460446002614F871
:1004D000015B2DB100F0DAF90068405DC007F6D18C
:1004E0002B2D02D02D2D18D0641E4A4639462046A9
:1004F00000F0A1FA27B13968A14201D1C7F8008004
:100500004FF0020471050BD54042002803DD00F0D6
:10051000C9F90460A007BDE8F08746F48066E4E707
:100520000028F8DA00F0BEF904606FF00040F2E74E
:1005300010B5431C02E010F8011B71B18107FAD11C
:100540004FF0013202C88C1A8C4314EAC211F9D060
:10055000C01A0A0603D0C01E10BDC01A10BD0A047E
:1005600001D0801E10BD0902FCD0401E10BD431AF0
:1005700028BF9A4240F2AE82032A1044114440F24E
:10058000268010F0030F1EBF11F8013D521E00F827
:10059000013D10F0030F7FF4F6AF11F0030300F0FC
:1005A000F182083AC0F00B8051F8043D083A51F846
:1005B00004CD40F8043D40F804CDFFF7F3BF121D11
:1005C0005CBF51F8043D40F8043DAFF30080D20712
:1005D00024BF11F8013D11F801CD48BF11F8012CDD
:1005E00024BF00F8013D00F801CD48BF00F8012C00
:1005F000704710B5203AC0F00B80B1E81850203A8F
:10060000A0E81850B1E81850A0E81850BFF4F5AFB2
:100610005FEA027C24BFB1E81850A0E8185044BF3C
:1006200018C918C0BDE810405FEA827C24BF51F8A9
:10063000043B40F8043B08BF7047D20728BF31F89D
:10064000023B48BF11F8012B28BF20F8023B48BFEE
:1006500000F8012B704700004FF0013C50F8042BCC
:1006600051F8043B9A4221D1A2EB0C03934313EAC5
:10067000CC1317D150F8042B51F8043B9A4215D1F2
:10068000A2EB0C03934313EACC130BD150F8042BC9
:1006900051F8043B9A4209D1A2EB0C03934313EAAD
:1006A000CC13DBD04FF00000704700BFD01A01BA66
:1006B000B1FA81F101F0180122FA01F0CB40C1F149
:1006C0002001DBB2C0B2C01A2CFA01F3D11A914357
:1006D00011EAC311E6D1704710B503681C1404EB8E
:1006E00021449BB289B2194494FBF2F302FB1343F9
:1006F00094FBF2F401EB034393FBF2F102FB1131A3
:1007000093FBF2F301E05B1E11440029FBDB016067
:1007100003EB044010BDF0B504464FF0FF3585B043
:100720000068049060680290A0680390E0680190FF
:1007300020690090666906F18040B0F1004F7CD8D6
:100740003C22002104A8FFF7C7FF3C22014602A873
:10075000FFF7C2FF1822014603A8FFF7BDFF411EA5
:1007600040F2B55201A8FFF7B7FF0C2207466846D2
:100770000021FFF7B1FF414B00EB8700304400261A
:100780007B4411E0511A01910099491C0229009102
:1007900002D00C2908D105E0810705D00199491C38
:1007A000019101E0401C00960099019A595C914228
:1007B000E8DD0099012906D11C2A04D1810702D065
:1007C0000221CDE90016A0F146018B293CD2DDE9DA
:1007D0000061002202E09F5C521C3944B242FADB05
:1007E000012E02DD820700D0491E40F2B55340F2CF
:1007F0006D16C21700EB927292105A4300F0030379
:1008000003FB062283070A4400D1521E039E02EB1B
:100810004203049F06EBC303029EC3EB031306EBE4
:100820008303174E33441E149BB2C6EB0616C3EB6C
:100830000313B60007EB830300E005E006EB134665
:1008400066F31F43360C02D0284605B0F0BD80C4C5
:10085000029E40C4039E40C4019E761C44F80C6B6B
:10086000009E44E902600720521C92FBF0F600FB58
:10087000162084E823001846E7E70000991E0000D0
:10088000A039CEFD704770477047000010B500F0EA
:10089000A7F9001D10BD00BF491D000000487047AA
:1008A0003C01002000487047340100207047704729
:1008B0007047704738B504460A4600206946AFF3D2
:1008C0000080002808BF38BD02460099204600F08D
:1008D0008BF9012038BD012000F0AEB9F8B5AFF3B7
:1008E0000080054600200C46102000BF0646A819CF
:1008F000A0420DD9324669460020AFF300800700C0
:1009000008BF00F099F90098A04218BF0546C41925
:10091000FFF7C4FF05600746F01D20F007004619E9
:10092000284600F00AF8B44208BFF8BDA21B3146C1
:100930003868BDE8F84000F057B900210160C0E90F
:1009400001107047102070472DE9F0470D46994679
:100950009246044600F124080168880604D5E0693F
:1009600021F01001216000E00120A84201DD471BB9
:1009700000E00027A1697A1902EB0900081AA061BA
:100980002078C00602D42046FFF79AFC002608E033
:10099000D4E901211AF806009047206A401C761C11
:1009A00020624E45F4DB2078C0060AD52046FFF7CA
:1009B00087FC06E0D4E9012130209047206A401CE2
:1009C0002062381EA7F10107F4DC07E0D4E9012119
:1009D00018F805009047206A401C2062281EA5F1E7
:1009E0000105F3DC2046FFF781FC2078000602D5E4
:1009F0000220BDE8F0870120FBE7000001694A1CE6
:100A000002610878704700B58FB0CDE9013100214F
:100A1000059105497944CDE9031011466846FFF771
:100A2000B3FC0FB000BD0000E5FFFFFF0A6802F84D
:100A3000010B0A6070472DE9F05F824615468B4630
:100A400000270AF10104B9460078302801D09DB191
:100A500013E014F8010B0127782803D0582801D09F
:100A600045B10AE00DB1102D07D1002714F8010B94
:100A7000102502E0082500E00A250026B0460EE019
:100A800005FB080005FB06F101271FFA80F801EBC2
:100A90001046B6F5803F00D3B94614F8010B29463D
:100AA00000F0BCF80028EBDABBF1000F05D00FB165
:100AB000641E00E05446CBF80040B9F1000F06D0A8
:100AC000FFF7F0FE02210160C81EBDE8F09F48EA72
:100AD0000640FAE7032A40F2308010F0030C00F0E1
:100AE000158011F8013BBCF1020F624498BF11F868
:100AF00001CB00F8013B38BF11F8013BA2F1040221
:100B000098BF00F801CB38BF00F8013B11F0030398
:100B10003FF46FAD083AC0F0088051F8043B083A42
:100B200051F804CBA0E80810F5E7121D5CBF51F89E
:100B3000043B40F8043BAFF30080D20724BF11F818
:100B4000013B11F801CB48BF11F8012B24BF00F87D
:100B5000013B00F801CB48BF00F8012B7047431A56
:100B600028BF9A427FF645AD104410F0030F1144A0
:100B70001EBF11F8013D521E00F8013D10F0030F99
:100B80007FF4F6AF103AC0F00A8010B531E9185082
:100B9000103A20E91850BFF4F9AFBDE810405307F0
:100BA00024BF31E9081020E9081044BF51F8043D82
:100BB00040F8043D12F0030F08BF7047D20728BF6A
:100BC00031F8023D48BF11F8012C28BF20F8023D42
:100BD00048BF00F8012C70470048704734010020DE
:100BE0000048704754010020034640688C460028A6
:100BF00018BF88423CBF03464068F8D318681844C1
:100C0000884207D00CF1030020F00700001D411AB4
:100C1000521A0146081D0A60FFF717BB3A2800D296
:100C2000303820F02002412A01D3A2F13700884257
:100C300001D34FF0FF30704710B500F039F8BDE830
:100C4000104000F02FB870477546FFF7C5FFAE465D
:100C500005006946534620F00700854618B020B5C8
:100C6000FFF7B2FABDE820404FF000064FF0000752
:100C70004FF000084FF0000B21F00701AC46ACE844
:100C8000C009ACE8C009ACE8C009ACE8C0098D46B1
:100C9000704710B50446AFF300802046BDE8104011
:100CA000FFF77DBA002801D000F02AB87047000095
:100CB00010B5012805D0002103A000F027F801207D
:100CC00010BD09A1F8E7000053494752544D454D66
:100CD0003A204F7574206F662068656170206D65DD
:100CE0006D6F7279000000003A2048656170206DD8
:100CF000656D6F727920636F7272757074656400D0
:100D000001491820ABBEFEE72600020070B505467B
:100D10000C460A2000E06D1C00F011F835B128786F
:100D20000028F8D102E0641C00F009F814B1207822
:100D30000028F8D1BDE870400A20AFF3008008B564
:100D400069468DF800000320ABBE08BD00BFFEE77A
:100D500008B50121042000F065FC2020ADF800005A
:100D600010208DF8030003208DF802006946044826
:100D700000F042FA2021024800F0D4FA08BD000039
:100D80000008014008B52020ADF8000048208DF88B
:100D900003006946014800F02FFA08BD0008014031
:100DA00008B52020ADF8000010208DF803000320C6
:100DB0008DF802006946024800F01EFA08BD0000E6
:100DC0000008014008B50121082000F02BFC4FF479
:100DD0006070ADF8000003208DF8020010208DF83F
:100DE00003006946014800F007FA08BD000C014005
:100DF00038B50446012C0DD10002ADF800000320E7
:100E00008DF8020010208DF803006946094800F0B3
:100E1000F3F90EE06CB94FF48070ADF800000320D8
:100E20008DF8020048208DF803006946014800F063
:100E3000E3F938BD000C01402DE9F047064637467E
:100E40004FF400702E490860002519E007F00100FA
:100E500020B14FF480702A49086004E04FF480709C
:100E60002749091D08607F1080202549086002205D
:100E700000F02EF980202249091D0860681C05B287
:100E8000082DE3DB0020FFF7B3FF002518E0641016
:100E90004FF480711A48103800F039FA10B144F05C
:100EA000800401E004F07F048020154908600220DE
:100EB00000F00EF980201249091D0860681C05B277
:100EC000082DE4DB4FF400700D49091D0860012076
:100ED000FFF78EFF2046E11704EB117109110FFA9D
:100EE00081F8E11704EB11710911A4EB011908EB6A
:100EF000880009EB40000FFA80FA5046BDE8F08701
:100F0000100C014010B58D20FFF796FF00F5FA6038
:100F100000B20E4908808920FFF78EFF0B494880F8
:100F20008720FFF789FF094988808520FFF784FF24
:100F30000649C8808320FFF77FFF0449088181208C
:100F4000FFF77AFF0149488110BD00002801002009
:100F500030B5044600218E2000F06CF8B4F90A0088
:100F60000A2190FBF1F201FB12010A2290FBF2F040
:100F700001EB001005B22946802000F05BF8B4F9BF
:100F800008000A2190FBF1F201FB12010A2290FBFA
:100F9000F2F001EB001005B22946822000F04AF879
:100FA000B4F906000A2190FBF1F201FB12010A22BA
:100FB00090FBF2F001EB001005B22946842000F00E
:100FC00039F8B4F904000A2190FBF1F201FB120197
:100FD0000A2290FBF2F001EB001005B229468620B0
:100FE00000F028F8B4F902000A2190FBF1F201FBAD
:100FF00012010A2290FBF2F001EB001005B2294623
:10100000882000F017F8B4F900000A2190FBF1F2F3
:1010100001FB12010A2290FBF2F001EB001005B275
:1010200029468C2000F006F880218E2000F002F87E
:1010300030BD0000F0B504460D4626462F464FF45D
:10104000007022490860002319E006F0010020B179
:101050004FF480701D49086004E04FF480701B4914
:10106000091D08607610802018490860022000F0F1
:101070002FF880201549091D0860581C03B2082B61
:10108000E3DB002319E007F0010020B14FF480708A
:101090000E49086004E04FF480700C49091D086097
:1010A0007F10802009490860022000F011F880209C
:1010B0000649091D0860581C03B2082BE3DB4FF4F6
:1010C00000700249091D0860F0BD0000100C0140CD
:1010D00007E06E2101E04A1ED1B20029FBDC421E6E
:1010E000D0B20028F5DC704710B50446FFF76AFE61
:1010F0000220FFF7EDFF4FF40070064908608020E2
:10110000086000218E20FFF795FF2046FFF720FFA3
:1011100010BD0000140C0140704700B5034603E009
:101120004FF47A7000F005F8181EA3F10103F7D10F
:1011300000BD00EBC001C9004FF0E0225161002169
:1011400091610521116100BF4FF0E021096901F4AF
:1011500080310029F8D004214FF0E022116170475E
:101160002DE9F04100240026002530E04FF4806195
:101170001B4800F0CCF8012829D100F0D5F804462E
:10118000FA2C00DB24E0C82C02DBFA2C00DA012662
:101190003C2C03DB5A2C01DA012704E00A2C02DB89
:1011A000322C00DA0027012E0FD10E4800784006BD
:1011B000000E0C4908700846007838440870202D4D
:1011C00003DB01200849087002E0681CC5B2CDE7C6
:1011D00000BF4FF4806000F009F8BDE8F081000026
:1011E0000008014029000020280000200149086073
:1011F00070470000140401402DE9F041024600252B
:101200000026002000230024002791F803C00CF0E2
:101210000F0591F803C00CF0100CBCF1000F03D0C7
:1012200091F802C04CEA050591F800C0BCF1000F2E
:1012300031D0146800202BE04FF0010C0CFA00F3C1
:10124000B1F800C00CEA03069E4220D183004FF0A3
:101250000F0C0CFA03F7BC4305FA03FC4CEA040438
:1012600091F803C0BCF1280F06D14FF0010C0CFA25
:1012700000FCC2F814C00AE091F803C0BCF1480FAA
:1012800005D14FF0010C0CFA00FCC2F810C0401C54
:101290000828D1D31460B1F800C0BCF1FF0F34DDD1
:1012A000546800202EE000F1080C4FF0010808FA05
:1012B0000CF3B1F800C00CEA03069E4221D1830072
:1012C0004FF00F0C0CFA03F7BC4305FA03FC4CEA91
:1012D000040491F803C0BCF1280F05D100F1080CFB
:1012E00008FA0CF8C2F8148091F803C0BCF1480F5A
:1012F00007D100F1080C4FF0010808FA0CF8C2F809
:101300001080401C0828CED35460BDE8F08102460E
:10131000002093680B400BB1012000E000207047D3
:10132000416170470161704710B5002408E0601CFE
:10133000C4B21420FFF7FDFEFA2C01DB204610BDDD
:101340004FF480610348FFF7E2FF0128EFD0204609
:10135000F5E700000008014000BFFEE700BFFEE720
:101360007047000070B5002100230F22C47804B339
:10137000154C246804F4E064C4F5E064210AC1F16A
:101380000403CA40447804FA03F1847814402143EA
:1013900009010E4C0678A155047804F01F050124BC
:1013A000AC4005786D11AD0005F1E025C5F80041B0
:1013B00009E0047804F01F050124AC40044D0678D0
:1013C000761145F8264070BD0CED00E000E400E029
:1013D00080E100E002490143024A116070470000C9
:1013E0000000FA050CED00E000B589B001210846C7
:1013F00000F008F90121042000F014F918208DF8FC
:1014000023000320ADF820008DF8220008A91D4814
:10141000FFF7F2FE4FF0804000F03CFC0020ADF8FA
:101420001A00ADF816006320ADF8180040F2CF2086
:10143000ADF8140000208DF81C0005A94FF0804085
:1014400000F0DAFC01A800F0C9FC6020ADF804004F
:101450000020ADF80C000120ADF806000020ADF82A
:101460000A0001A94FF0804000F01AFC01A94FF0DA
:10147000804000F061FC0121880700F0E5FB09B025
:1014800000BD00000008014010B5044621464FF0A1
:10149000804000F0ADFC10BD10B5044621464FF071
:1014A000804000F0A7FC10BD7047000070B50446F6
:1014B0005148FFF73DF805462A464F49491C481E4A
:1014C000FFF755F84C48FFF733F80E287ED1042279
:1014D0000021494801F054F84849088004220021BD
:1014E000454801F04DF840F6B831884210DA042240
:1014F0000021414801F044F840F2E671884207DDDE
:10150000042202213C4801F03BF800B2208001E0B7
:10151000002070BD06220421374801F031F80D2863
:101520000EDA06220421344801F02AF8002807DDEB
:1015300006220421304801F023F800B2608001E067
:101540000020E6E7082206212B4801F019F82028A0
:101550000EDA08220621284801F012F8002807DDDB
:1015600008220621244801F00BF800B2A08001E017
:101570000020CEE70A2208211F4801F001F81828B0
:101580000EDA0A2208211C4800F0FAFF002807DBC7
:101590000A220821184800F0F3FF00B2E08001E0C1
:1015A0000020B6E70C220A21134800F0E9FF3C288E
:1015B0001BDA0C220A21104800F0E2FF002814DB9D
:1015C0000C220A210C4800F0DBFF00E011E000B221
:1015D00020810E220C21084800F0D2FF00B2608169
:1015E000002007490870012093E700200449087093
:1015F0008FE700208DE70000C400002030000020AD
:101600002A00002029B1064AD2690243044BDA615C
:1016100004E0034AD2698243014BDA61704700005B
:101620000010024029B1064A92690243044B9A61B4
:1016300004E0034A92698243014B9A6170470000BB
:101640000010024030B500210022002400232D4D5F
:101650006D6805F00C0121B1042905D0082923D1BA
:1016600005E0294D056022E0274D05601FE0254D6E
:101670006D6805F47012234D6D6805F48034022501
:1016800005EB92421CB9214D554305600BE01D4D01
:101690006D6805F400351DB11C4D5543056002E031
:1016A000194D5543056002E0174D056000BF00BFAE
:1016B000144D6D6805F0F0010909154D6B5C056866
:1016C000DD4045600F4D6D6805F4E061090A104D7D
:1016D0006B5C4568DD4085600A4D6D6805F46051BE
:1016E000C90A0B4D6B5C4568DD40C560054D6D68F2
:1016F00005F44041890B074D6B5CC568B5FBF3F5FC
:10170000056130BD0010024000127A0000093D0062
:1017100032000020420000202DE9F0410024002783
:101720001EE00025002600BF681CC5B220210F481E
:10173000FFF7EDFD08B9002DF6D100BF701CC6B251
:1017400020210A48FFF7E3FD012801D1002EF5D141
:101750006006040EAE4201DD601CC4B2781CC7B244
:10176000082FDEDB2046BDE8F081000000080140C4
:1017700070B504460025FFF713FB20212348FFF72F
:10178000CFFD1220FFF7C9FCFFF7FCFA00BF2021B4
:101790001E48FFF7BCFD012803D1681CC0B2051E1E
:1017A000F5D1002500BF20211848FFF7B0FD18B97A
:1017B000681CC0B2051EF6D1002500BF20211348C9
:1017C000FFF7A5FD012803D1681CC0B2051EF5D1A5
:1017D000FFF7A2FF2070FFF79FFF6070FFF79CFFED
:1017E000A070FFF799FFE070FFF796FF2071207857
:1017F00061780844A1780844E1780844C0B22179AE
:10180000884201D1012070BD0020FCE700080140A2
:101810007047000000B587B001218803FFF702FF81
:1018200001210420FFF7FEFE18208DF81B004FF465
:101830000070ADF8180003208DF81A0006A92148A1
:10184000FFF7DAFC48208DF81B004FF48060ADF8FC
:10185000180003208DF81A0006A91A48FFF7CCFCDF
:101860004FF4165002900020ADF814000C20ADF893
:1018700012000020ADF81000ADF80E00ADF80C001D
:1018800002A9114800F026FC012240F225510E4821
:1018900000F0FAFB4FF4A060FFF79CFD25208DF8C7
:1018A000040001208DF807008DF805008DF8060072
:1018B00001A8FFF757FD0121034800F0A2FB07B084
:1018C00000BD0000000801400038014010B502468C
:1018D000012000E050430B1EA1F10101FAD110BD1F
:1018E00010B504462146054800F065FC00BF802184
:1018F000024800F092FB0028F9D010BD00380140EA
:101900002DE9F04106460C46002512E0601B411E01
:101910000A20FFF7DBFFB6FBF0F00A21B0FBF1F283
:1019200001FB120000F130073846FFF7D9FF681CB1
:10193000C5B2A542EADBBDE8F08170B504460025DA
:1019400004E0605DFFF7CCFF681CC5B2605D002855
:10195000F7D170BD10B500F001F810BD0CB5002036
:10196000019000903348006840F4803031490860AD
:1019700000BF3048006800F4003000900198401C1F
:101980000190009818B90198B0F5A06FF1D12948DD
:10199000006800F4003010B10120009001E0002048
:1019A00000900098012843D12348006840F01000BF
:1019B000214908600846006820F0030008600846D6
:1019C000006840F0020008601A4840681949486001
:1019D0000846406848600846406840F480604860B7
:1019E0000846406820F47C1048600846406840F48F
:1019F000E81048600846006840F08070086000BF4A
:101A00000C48006800F000700028F9D009484068D0
:101A100020F00300074948600846406840F0020093
:101A2000486000BF0348406800F00C000828F9D166
:101A30000CBD0000001002400020024010B504461A
:101A400003220121174800F09BFD18280EDA03221B
:101A50000121144800F094FD002807DB0322012136
:101A6000104800F08DFD00B2208001E0002010BD84
:101A7000052203210B4800F083FD3C280FDA0522E4
:101A80000321084800F07CFD002808DB0522032123
:101A9000044800F075FD00B260800120E7E70020F7
:101AA000E5E70000C40000207047000010B51348AF
:101AB000006840F00100114908600846406810497C
:101AC00008400E494860084600680E4908400B4926
:101AD00008600846006820F48020086008464068D6
:101AE00020F4FE0048604FF41F008860FFF732FFCB
:101AF0004FF000600449086010BD00000010024073
:101B00000000FFF8FFFFF6FE08ED00E010B5012130
:101B10003C4800F0A5F8012873D1FFF7F3F93A48E3
:101B2000007800285FD03948007800285BD038481A
:101B300000F0B4F937490860354800883649088014
:101B400033484088488032488088888033480088FD
:101B5000C88032484088088100204881084600F04B
:101B60009DF92F4908602B4800680968401A2D49E3
:101B700008600846006800281EDD084600682A49FB
:101B80000968884218DA29A0FFF7D7FE0321284800
:101B90000068FFF7B5FE26480068264991F9001055
:101BA00088421CDA22490A880968491C204B90B2F5
:101BB0001960FFF769FC12E000201D490860194810
:101BC000006819490968884209DB16480168164807
:101BD0000068001D814202DC0020FFF755FC012057
:101BE0001549087009E01448007830B10020104908
:101BF000086011490870FFF747FC0121014800F017
:101C000020F810BD00040040180000201A00002039
:101C10002801002010000020480000201C000020A7
:101C200014000020080000202400002050574D0020
:101C3000040000202200002019000020CA43028274
:101C40007047CA430282704721B1028842F0010204
:101C5000028004E002884FF6FE731A40028070474B
:101C600030B50246002000230024158A05EA01034E
:101C7000958905EA010413B10CB1012000E00020B0
:101C800030BD1AB183890B43838102E083898B4382
:101C90008381704701894FF6F872114001817047C6
:101CA00070B5002400220023058C4FF6FE763540E7
:101CB0000584028C8388048B4FF68F752C40B51EEB
:101CC0002C400D882C43751E2A400D892A434D88CF
:101CD0002A43144DA8420BD0134DA84208D0134DEF
:101CE000A84205D0124DA84202D0124DA84213D1ED
:101CF0004FF6F7752A404D892A434FF6FB752A4067
:101D00008D882A434FF6FF652B404FF6FF552B4039
:101D10008D892B43CD892B4383800483CD88858691
:101D2000028470BD002C014000340140004001409D
:101D3000004401400048014070B500240022002307
:101D4000058C4FF6EF7635400584028C8388048B32
:101D500048F6FF752C404FF6FF452C400D884FF696
:101D6000FF7606EA05252C434FF6DF752A400D89DC
:101D700006EA05152A434D8806EA05152A43154D3E
:101D8000A84202D0144DA8421DD14FF67F752A40BB
:101D90004D894FF6FF7606EA05152A434FF6BF75C3
:101DA0002A408D8806EA05152A434FF6FF352B4059
:101DB0004FF2FF752B408D8906EA85052B43CD89AF
:101DC00006EA85052B4383800483CD88058702843A
:101DD00070BD0000002C0140003401400021018052
:101DE00041808180C180018141818181C1817047B1
:101DF0008186704701877047002202881D4B9842F8
:101E00000ED01D4B98420BD0B0F1804F08D01B4B29
:101E1000984205D01A4B984202D01A4B984204D1EE
:101E20004FF68F731A404B881A43174B984207D0CE
:101E3000164B984204D04FF6FF431A40CB881A4302
:101E400002808B8883850B8803850A4B98420BD0D0
:101E5000094B984208D00E4B984205D00D4B984242
:101E600002D00D4B984201D10B7A03860123838265
:101E700070470000002C0140003401400004004085
:101E800000080040000C004000100040001400401A
:101E900000400140004401400048014030B58BB093
:101EA0000446B4F90000A0F26C700590B4F9020089
:101EB000401E0490B4F904000390B4F906000290A7
:101EC000B4F908000190B4F90A0000906846FEF7E2
:101ED00022FC054628460BB030BD00001FB501218D
:101EE0000220FFF78FFB1B48FFF7D4FE0020ADF860
:101EF0000A00ADF8060042F20F70ADF8080041F696
:101F00001F40ADF8040000208DF80C0001A9114815
:101F1000FFF772FF01210F48FFF790FE01221146E3
:101F20000C48FFF7AEFE4FF4A060FFF753FA1D20F8
:101F30008DF8000001208DF803008DF801008DF868
:101F400002006846FFF70EFA01210248FFF77CFE07
:101F50001FBD00000004004010B540F225511C4890
:101F600000F068F8012832D1194800F01FF9C4B216
:101F70001848007858B9402C23D11748007800BB86
:101F800001201449087000201449087019E0114814
:101F90000078012815D1232C0AD100200D490870A2
:101FA0000F490E4A1278885401200B49087008E046
:101FB0000B480A490978445408480078401C0749EE
:101FC000087040F22551024800F00CF800BF10BD27
:101FD000003801402B0000202A0000202C000020A7
:101FE000C400002010B50022002340F66A14A1426C
:101FF00000D100BF0A1201249440A3B2DC43048044
:1020000010BD21B1828942F40052828104E08289AC
:102010004DF6FF731A408281704702460020B1F5E9
:10202000007F00D100BF13880B400BB1012000E0FE
:102030000020704770B502460024002300250020D0
:1020400040F66A16B14200D100BFC1F3421501F05B
:102050001F03012606FA03F3012D02D196893340AE
:1020600006E0022D02D1168A334001E0968A334001
:102070000C12012606FA04F41688344013B10CB190
:10208000012000E0002070BDF0B5034600240026CA
:102090000025002040F66A17B94200D100BF18465B
:1020A000C1F3421401F01F06012707FA06F5012CBF
:1020B00001D10C3004E0022C01D1103000E01430CA
:1020C0001AB107682F43076002E00768AF43076053
:1020D000F0BD00002DE9F04786B005460E4600240D
:1020E000A24600BFA1460027B08900B100BF2F461D
:1020F0002C8A4CF6FF700440F08804432C82AC8993
:102100004EF6F3100440B0883189084371890843C2
:102110000443AC81AC8A4FF6FF400440B0890443CD
:10212000AC8201A8FFF78EFA1F48874202D1DDF882
:1021300010A001E0DDF80CA0A88900F4004040B137
:102140000AEBCA0000EB0A1031684900B0FBF1F855
:1021500007E00AEBCA0000EB0A1031688900B0FB07
:10216000F1F86420B8FBF0F004012009642101FBC0
:102170001089A88900F4004040B1322000EBC9006A
:10218000B0FBF1F000F00700044308E0322000EB60
:1021900009106421B0FBF1F000F00F0004432C8122
:1021A00006B0BDE8F087000000380140014688888D
:1021B000C0F308007047C1F308028280704700BF77
:1021C000FEE730380A2801D201207047002070470E
:1021D0008AB0FFF71FFBFFF781FEFFF705F9FEF757
:1021E000B7FD95A0FFF7A9FB25E1944800780128E9
:1021F000FAD193480078552874D008DC312872D081
:10220000322871D04E2870D053286FD1C3E0632894
:1022100004D0642851D06E28F7D168E006A8FFF7F3
:10222000A7FA012808D000208DF81A008DF81B00AD
:102230008DF818008DF8190082480078E8B98248B6
:10224000B0F902008049B1F90010804A92F90030DB
:102250009DF81920CDE90123CDE903109DF8180060
:1022600000909DF81B309DF81A2079A17F48FEF759
:1022700013F87E48FFF761FB1BE07348B0F90210CA
:10228000B0F90000714A92F900309DF81920CDE9AB
:102290000123CDE903019DF8180000909DF81B3043
:1022A0009DF81A2072A17148FDF7F6FF6F48FFF7FD
:1022B00044FB002061490870BCE07448FFF7F6F861
:1022C00048B17248FEF710FF71A0FFF736FB0120FE
:1022D0005C49087002E076A0FFF72FFB0020574909
:1022E0000870A7E082E014E02CE044E09EE056484D
:1022F000FFF7A4FB30B15348007818B172A0FFF784
:102300001CFB02E077A0FFF718FB00204B49087088
:1023100090E07AA14A48FEF79FF948B9794991F9C6
:10232000001088B2FFF7B0F877A0FFF706FB05E0D2
:102330000020FFF7A9F877A0FFF7FFFA00203F4938
:10234000087077E076A13E48FEF786F948B97649ED
:1023500091F9001088B2FFF79FF874A0FFF7EDFA2B
:1023600005E00020FFF798F873A0FFF7E6FA0020D9
:10237000324908705EE073A13148FEF76DF918B973
:1023800001203249087002E0002030490870002026
:102390002A4908704EE02A48FEF7CAF8092824D1D5
:1023A00003220121264800F0EBF8C0EB001080006A
:1023B0006649086005220321214800F0E1F840B297
:1023C00063490870072205211D4800F0D9F840B282
:1023D0004C49087009220721194800F0D1F840B291
:1023E0005149087000201549087000BF594803681A
:1023F0005948B0F90A005849B1F90810564AB2F9DB
:102400000620CDE90303CDE901215348B0F90400CA
:1024100000905148B0F90230B0F900204FA11348A4
:10242000FDF73AFF1148FFF788FA00BF0020034983
:10243000087000BF00BFD8E66F6B00002A000020C4
:10244000C40000201A0000201C00002018000020FA
:102450003025303264253032642530326425303204
:102460006425642530326425303264005400002035
:1024700031253032642530326425303264253032E3
:10248000642564253032642530326400B8000020B1
:1024900074696D6520636F7272656374696F6E2015
:1024A0005375636365737366756C6C790000000027
:1024B00054696D6520636F7272656374696F6E2015
:1024C0006661696C65640000416C61726D207365C2
:1024D0007474696E67207375636365737366756C76
:1024E0006C790000416C61726D2073657474696E63
:1024F00067206661696C656400000000315F6F6E83
:1025000000000000210000206F70656E204C4544E3
:1025100000000000636C6F7365204C4544000000B0
:10252000325F6F6E00000000200000206F70656E4B
:10253000204C454432000000636C6F7365204C45AD
:10254000443200004E5F6F6E000000002400002047
:1025500022000020080000202801002054253034EB
:1025600064253032642530326425303264253032BF
:1025700064253032647070702530326400000000D1
:102580002DE9F05F80460D4616464FF0000A701B9D
:1025900000F1020B5846FDF729FE04462F4608E0DD
:1025A00018F807205046411C4FFA81FA2254781C33
:1025B00047B2B742F4DB002004F80A000A220021E7
:1025C0002046FDF77DFF054908800846B0F80090D9
:1025D0002046FDF73AFE4846BDE8F09F2E00002059
:1025E00010B500290AD00878002807D0054878449B
:1025F000FEF732F8002801D0002010BD02487844D0
:1026000010BD00005E00000056000000040000083D
:10261000000000000000000200010000101F1D1F4C
:102620001E1F1E1F1F1E1F1E1F0000005C2700080C
:10263000000000204800000028010008A42700082E
:10264000480000205007000044010008100100006D
:1026500043000000F8FFFFFF004040404040404082
:102660004040414141414140404040404040404065
:102670004040404040404040400502020202020209
:102680000202020202020202022020202020202058
:10269000202020020202020202029090909090906C
:1026A000101010101010101010101010101010102A
:1026B000101010100202020202028888888888889E
:1026C000080808080808080808080808080808088A
:1026D0000808080802020202400000000000000092
:1026E00000000000000000000000000000000000EA
:1026F00000000000000000000000000000000000DA
:1027000000000000000000000000000000000000C9
:1027100000000000000000000000000000000000B9
:1027200000000000000000000000000000000000A9
:102730000000000000000000000000000000000099
:102740000000000000000000000000000000000089
:102750000000000000000000000000002121000037
:102760000000000000000000000000000000000069
:102770000000000000000000000000003C101000FD
:1027800058020000000000000000000000000000EF
:102790000000010203040102030406070809020401
:0427A0000608000027
:04000005080000ED02
:00000001FF
